{
  "abi": [
    {
      "inputs": [
        {
          "internalType": "address",
          "name": "_usdtAggregatorAddress",
          "type": "address"
        }
      ],
      "stateMutability": "nonpayable",
      "type": "constructor"
    },
    {
      "inputs": [],
      "name": "decimals",
      "outputs": [
        {
          "internalType": "uint8",
          "name": "",
          "type": "uint8"
        }
      ],
      "stateMutability": "view",
      "type": "function"
    },
    {
      "inputs": [
        {
          "internalType": "uint256",
          "name": "ethOutput",
          "type": "uint256"
        }
      ],
      "name": "getTokenValueOfEth",
      "outputs": [
        {
          "internalType": "uint256",
          "name": "tokenInput",
          "type": "uint256"
        }
      ],
      "stateMutability": "view",
      "type": "function"
    },
    {
      "inputs": [],
      "name": "latestAnswer",
      "outputs": [
        {
          "internalType": "uint256",
          "name": "",
          "type": "uint256"
        }
      ],
      "stateMutability": "view",
      "type": "function"
    },
    {
      "inputs": [],
      "name": "usdtAggregator",
      "outputs": [
        {
          "internalType": "contract AggregatorV2V3Interface",
          "name": "",
          "type": "address"
        }
      ],
      "stateMutability": "view",
      "type": "function"
    }
  ],
  "bytecode": {
    "object": "0x60c060405234801561001057600080fd5b5060405161041e38038061041e83398101604081905261002f916100a9565b6001600160a01b03811660808190526040805163313ce56760e01b8152905163313ce567916004808201926020929091908290030181865afa158015610079573d6000803e3d6000fd5b505050506040513d601f19601f8201168201806040525081019061009d91906100d9565b60ff1660a052506100fc565b6000602082840312156100bb57600080fd5b81516001600160a01b03811681146100d257600080fd5b9392505050565b6000602082840312156100eb57600080fd5b815160ff811681146100d257600080fd5b60805160a0516102f261012c6000396000605601526000818160bd0152818160fe015261019201526102f26000f3fe608060405234801561001057600080fd5b506004361061004c5760003560e01c8063313ce5671461005157806350d25bcd1461008f578063d1eca9cf146100a5578063f664b3fa146100b8575b600080fd5b6100787f000000000000000000000000000000000000000000000000000000000000000081565b60405160ff90911681526020015b60405180910390f35b6100976100f7565b604051908152602001610086565b6100976100b3366004610268565b610188565b6100df7f000000000000000000000000000000000000000000000000000000000000000081565b6040516001600160a01b039091168152602001610086565b60006101837f00000000000000000000000000000000000000000000000000000000000000006001600160a01b03166350d25bcd6040518163ffffffff1660e01b8152600401602060405180830381865afa15801561015a573d6000803e3d6000fd5b505050506040513d601f19601f8201168201806040525081019061017e9190610281565b6101fb565b905090565b60006101f56101ee7f00000000000000000000000000000000000000000000000000000000000000006001600160a01b03166350d25bcd6040518163ffffffff1660e01b8152600401602060405180830381865afa15801561015a573d6000803e3d6000fd5b8390610255565b92915050565b6000808212156102515760405162461bcd60e51b815260206004820181905260248201527f53616665436173743a2076616c7565206d75737420626520706f736974697665604482015260640160405180910390fd5b5090565b6000610261828461029a565b9392505050565b60006020828403121561027a57600080fd5b5035919050565b60006020828403121561029357600080fd5b5051919050565b6000826102b757634e487b7160e01b600052601260045260246000fd5b50049056fea2646970667358221220d91a1f90d400071e43bb4c7c2a9cda3fe8320535c3ef4516371796091a6721fe64736f6c634300080d0033",
    "linkReferences": {}
  },
  "methodIdentifiers": {
    "decimals()": "313ce567",
    "getTokenValueOfEth(uint256)": "d1eca9cf",
    "latestAnswer()": "50d25bcd",
    "usdtAggregator()": "f664b3fa"
  },
  "id": 100
}